{
  "abi": [
    {
      "inputs": [],
      "stateMutability": "nonpayable",
      "type": "constructor"
    },
    {
      "anonymous": false,
      "inputs": [
        {
          "indexed": true,
          "internalType": "address",
          "name": "user",
          "type": "address"
        }
      ],
      "name": "AllowListAdded",
      "type": "event"
    },
    {
      "anonymous": false,
      "inputs": [
        {
          "indexed": true,
          "internalType": "address",
          "name": "user",
          "type": "address"
        }
      ],
      "name": "AllowListRemoved",
      "type": "event"
    },
    {
      "anonymous": false,
      "inputs": [
        {
          "indexed": true,
          "internalType": "address",
          "name": "user",
          "type": "address"
        },
        {
          "indexed": false,
          "internalType": "uint256",
          "name": "amount",
          "type": "uint256"
        }
      ],
      "name": "TokensClaimed",
      "type": "event"
    },
    {
      "inputs": [],
      "name": "CLAIM_AMOUNT",
      "outputs": [
        {
          "internalType": "uint256",
          "name": "",
          "type": "uint256"
        }
      ],
      "stateMutability": "view",
      "type": "function"
    },
    {
      "inputs": [
        {
          "internalType": "address[]",
          "name": "users",
          "type": "address[]"
        }
      ],
      "name": "addMultipleToAllowList",
      "outputs": [],
      "stateMutability": "nonpayable",
      "type": "function"
    },
    {
      "inputs": [
        {
          "internalType": "address",
          "name": "user",
          "type": "address"
        }
      ],
      "name": "addToAllowList",
      "outputs": [],
      "stateMutability": "nonpayable",
      "type": "function"
    },
    {
      "inputs": [],
      "name": "admin",
      "outputs": [
        {
          "internalType": "address",
          "name": "",
          "type": "address"
        }
      ],
      "stateMutability": "view",
      "type": "function"
    },
    {
      "inputs": [
        {
          "internalType": "address",
          "name": "",
          "type": "address"
        }
      ],
      "name": "allowList",
      "outputs": [
        {
          "internalType": "bool",
          "name": "",
          "type": "bool"
        }
      ],
      "stateMutability": "view",
      "type": "function"
    },
    {
      "inputs": [
        {
          "internalType": "address",
          "name": "newAdmin",
          "type": "address"
        }
      ],
      "name": "changeAdmin",
      "outputs": [],
      "stateMutability": "nonpayable",
      "type": "function"
    },
    {
      "inputs": [],
      "name": "claim",
      "outputs": [],
      "stateMutability": "nonpayable",
      "type": "function"
    },
    {
      "inputs": [
        {
          "internalType": "address",
          "name": "",
          "type": "address"
        }
      ],
      "name": "claimed",
      "outputs": [
        {
          "internalType": "bool",
          "name": "",
          "type": "bool"
        }
      ],
      "stateMutability": "view",
      "type": "function"
    },
    {
      "inputs": [],
      "name": "mojoToken",
      "outputs": [
        {
          "internalType": "contract ERC20Base",
          "name": "",
          "type": "address"
        }
      ],
      "stateMutability": "view",
      "type": "function"
    },
    {
      "inputs": [
        {
          "internalType": "address",
          "name": "user",
          "type": "address"
        }
      ],
      "name": "removeFromAllowList",
      "outputs": [],
      "stateMutability": "nonpayable",
      "type": "function"
    }
  ],
  "devdoc": {
    "kind": "dev",
    "methods": {},
    "version": 1
  },
  "evm": {
    "assembly": "    /* \"MojoClaim.sol\":112:1654  contract MojoClaim {... */\n  mstore(0x40, 0xa0)\n    /* \"MojoClaim.sol\":186:228  0xf9e7D3cd71Ee60C7A3A64Fa7Fcb81e610Ce1daA5 */\n  0xf9e7d3cd71ee60c7a3a64fa7fcb81e610ce1daa5\n    /* \"MojoClaim.sol\":137:229  ERC20Base public immutable mojoToken = ERC20Base(0xf9e7D3cd71Ee60C7A3A64Fa7Fcb81e610Ce1daA5) */\n  0x80\n  mstore\n    /* \"MojoClaim.sol\":687:736  constructor() {... */\n  callvalue\n  dup1\n  iszero\n  tag_1\n  jumpi\n  0x00\n  dup1\n  revert\ntag_1:\n  pop\n    /* \"MojoClaim.sol\":711:716  admin */\n  0x00\n    /* \"MojoClaim.sol\":711:729  admin = msg.sender */\n  dup1\n  sload\n  not(sub(shl(0xa0, 0x01), 0x01))\n  and\n    /* \"MojoClaim.sol\":719:729  msg.sender */\n  caller\n    /* \"MojoClaim.sol\":711:729  admin = msg.sender */\n  or\n  swap1\n  sstore\n    /* \"MojoClaim.sol\":112:1654  contract MojoClaim {... */\n  mload(0x80)\n  codecopy(0x00, dataOffset(sub_0), dataSize(sub_0))\n  0x00\n  assignImmutable(\"0xe4b1702d9298fee62dfeccc57d322a463ad55ca201256d01f62b45b2e1c21c10\")\n  return(0x00, dataSize(sub_0))\nstop\n\nsub_0: assembly {\n        /* \"MojoClaim.sol\":112:1654  contract MojoClaim {... */\n      mstore(0x40, 0x80)\n      callvalue\n      dup1\n      iszero\n      tag_1\n      jumpi\n      0x00\n      dup1\n      revert\n    tag_1:\n      pop\n      jumpi(tag_2, lt(calldatasize, 0x04))\n      shr(0xe0, calldataload(0x00))\n      dup1\n      0x8f283970\n      gt\n      tag_13\n      jumpi\n      dup1\n      0xd56fb4a9\n      gt\n      tag_14\n      jumpi\n      dup1\n      0xd56fb4a9\n      eq\n      tag_10\n      jumpi\n      dup1\n      0xeba8dabc\n      eq\n      tag_11\n      jumpi\n      dup1\n      0xf851a440\n      eq\n      tag_12\n      jumpi\n      0x00\n      dup1\n      revert\n    tag_14:\n      dup1\n      0x8f283970\n      eq\n      tag_8\n      jumpi\n      dup1\n      0xc884ef83\n      eq\n      tag_9\n      jumpi\n      0x00\n      dup1\n      revert\n    tag_13:\n      dup1\n      0x31f59102\n      gt\n      tag_15\n      jumpi\n      dup1\n      0x31f59102\n      eq\n      tag_5\n      jumpi\n      dup1\n      0x4e71d92d\n      eq\n      tag_6\n      jumpi\n      dup1\n      0x5d69086f\n      eq\n      tag_7\n      jumpi\n      0x00\n      dup1\n      revert\n    tag_15:\n      dup1\n      0x270ef385\n      eq\n      tag_3\n      jumpi\n      dup1\n      0x2848aeaf\n      eq\n      tag_4\n      jumpi\n    tag_2:\n      0x00\n      dup1\n      revert\n        /* \"MojoClaim.sol\":261:313  uint256 public constant CLAIM_AMOUNT = 100000 * 1e18 */\n    tag_3:\n      tag_16\n        /* \"MojoClaim.sol\":300:313  100000 * 1e18 */\n      0x152d02c7e14af6800000\n        /* \"MojoClaim.sol\":261:313  uint256 public constant CLAIM_AMOUNT = 100000 * 1e18 */\n      dup2\n      jump\n    tag_16:\n      mload(0x40)\n        /* \"#utility.yul\":160:185   */\n      swap1\n      dup2\n      mstore\n        /* \"#utility.yul\":148:150   */\n      0x20\n        /* \"#utility.yul\":133:151   */\n      add\n        /* \"MojoClaim.sol\":261:313  uint256 public constant CLAIM_AMOUNT = 100000 * 1e18 */\n    tag_18:\n      mload(0x40)\n      dup1\n      swap2\n      sub\n      swap1\n      return\n        /* \"MojoClaim.sol\":336:377  mapping(address => bool) public allowList */\n    tag_4:\n      tag_20\n      tag_21\n      calldatasize\n      0x04\n      tag_22\n      jump\t// in\n    tag_21:\n      mstore(0x20, 0x01)\n      0x00\n      swap1\n      dup2\n      mstore\n      0x40\n      swap1\n      keccak256\n      sload\n      0xff\n      and\n      dup2\n      jump\n    tag_20:\n      mload(0x40)\n        /* \"#utility.yul\":675:689   */\n      swap1\n      iszero\n        /* \"#utility.yul\":668:690   */\n      iszero\n        /* \"#utility.yul\":650:691   */\n      dup2\n      mstore\n        /* \"#utility.yul\":638:640   */\n      0x20\n        /* \"#utility.yul\":623:641   */\n      add\n        /* \"MojoClaim.sol\":336:377  mapping(address => bool) public allowList */\n      tag_18\n        /* \"#utility.yul\":510:697   */\n      jump\n        /* \"MojoClaim.sol\":742:873  function addToAllowList(address user) external onlyAdmin {... */\n    tag_5:\n      tag_26\n      tag_27\n      calldatasize\n      0x04\n      tag_22\n      jump\t// in\n    tag_27:\n      tag_28\n      jump\t// in\n    tag_26:\n      stop\n        /* \"MojoClaim.sol\":1260:1555  function claim() external {... */\n    tag_6:\n      tag_26\n      tag_30\n      jump\t// in\n        /* \"MojoClaim.sol\":879:1109  function addMultipleToAllowList(address[] calldata users) external onlyAdmin {... */\n    tag_7:\n      tag_26\n      tag_32\n      calldatasize\n      0x04\n      tag_33\n      jump\t// in\n    tag_32:\n      tag_34\n      jump\t// in\n        /* \"MojoClaim.sol\":1561:1652  function changeAdmin(address newAdmin) external onlyAdmin {... */\n    tag_8:\n      tag_26\n      tag_36\n      calldatasize\n      0x04\n      tag_22\n      jump\t// in\n    tag_36:\n      tag_37\n      jump\t// in\n        /* \"MojoClaim.sol\":383:422  mapping(address => bool) public claimed */\n    tag_9:\n      tag_20\n      tag_39\n      calldatasize\n      0x04\n      tag_22\n      jump\t// in\n    tag_39:\n      mstore(0x20, 0x02)\n      0x00\n      swap1\n      dup2\n      mstore\n      0x40\n      swap1\n      keccak256\n      sload\n      0xff\n      and\n      dup2\n      jump\n        /* \"MojoClaim.sol\":137:229  ERC20Base public immutable mojoToken = ERC20Base(0xf9e7D3cd71Ee60C7A3A64Fa7Fcb81e610Ce1daA5) */\n    tag_10:\n      tag_42\n      immutable(\"0xe4b1702d9298fee62dfeccc57d322a463ad55ca201256d01f62b45b2e1c21c10\")\n      dup2\n      jump\n    tag_42:\n      mload(0x40)\n      sub(shl(0xa0, 0x01), 0x01)\n        /* \"#utility.yul\":1503:1558   */\n      swap1\n      swap2\n      and\n        /* \"#utility.yul\":1485:1559   */\n      dup2\n      mstore\n        /* \"#utility.yul\":1473:1475   */\n      0x20\n        /* \"#utility.yul\":1458:1476   */\n      add\n        /* \"MojoClaim.sol\":137:229  ERC20Base public immutable mojoToken = ERC20Base(0xf9e7D3cd71Ee60C7A3A64Fa7Fcb81e610Ce1daA5) */\n      tag_18\n        /* \"#utility.yul\":1322:1565   */\n      jump\n        /* \"MojoClaim.sol\":1115:1254  function removeFromAllowList(address user) external onlyAdmin {... */\n    tag_11:\n      tag_26\n      tag_47\n      calldatasize\n      0x04\n      tag_22\n      jump\t// in\n    tag_47:\n      tag_48\n      jump\t// in\n        /* \"MojoClaim.sol\":235:255  address public admin */\n    tag_12:\n      sload(0x00)\n      tag_42\n      swap1\n      sub(shl(0xa0, 0x01), 0x01)\n      and\n      dup2\n      jump\n        /* \"MojoClaim.sol\":742:873  function addToAllowList(address user) external onlyAdmin {... */\n    tag_28:\n        /* \"MojoClaim.sol\":644:649  admin */\n      and(sub(shl(0xa0, 0x01), 0x01), sload(0x00))\n        /* \"MojoClaim.sol\":630:640  msg.sender */\n      caller\n        /* \"MojoClaim.sol\":630:649  msg.sender == admin */\n      eq\n        /* \"MojoClaim.sol\":622:663  require(msg.sender == admin, \"Not admin\") */\n      tag_54\n      jumpi\n      mload(0x40)\n      shl(0xe5, 0x461bcd)\n      dup2\n      mstore\n        /* \"#utility.yul\":2003:2005   */\n      0x20\n        /* \"MojoClaim.sol\":622:663  require(msg.sender == admin, \"Not admin\") */\n      0x04\n      dup3\n      add\n        /* \"#utility.yul\":1985:2006   */\n      mstore\n        /* \"#utility.yul\":2042:2043   */\n      0x09\n        /* \"#utility.yul\":2022:2040   */\n      0x24\n      dup3\n      add\n        /* \"#utility.yul\":2015:2044   */\n      mstore\n      shl(0xb9, 0x2737ba1030b236b4b7)\n        /* \"#utility.yul\":2060:2078   */\n      0x44\n      dup3\n      add\n        /* \"#utility.yul\":2053:2092   */\n      mstore\n        /* \"#utility.yul\":2109:2127   */\n      0x64\n      add\n        /* \"MojoClaim.sol\":622:663  require(msg.sender == admin, \"Not admin\") */\n    tag_55:\n      mload(0x40)\n      dup1\n      swap2\n      sub\n      swap1\n      revert\n    tag_54:\n      sub(shl(0xa0, 0x01), 0x01)\n        /* \"MojoClaim.sol\":809:824  allowList[user] */\n      dup2\n      and\n      0x00\n      dup2\n      dup2\n      mstore\n        /* \"MojoClaim.sol\":827:831  true */\n      0x01\n        /* \"MojoClaim.sol\":809:824  allowList[user] */\n      0x20\n      dup2\n      swap1\n      mstore\n      0x40\n      dup1\n      dup4\n      keccak256\n        /* \"MojoClaim.sol\":809:831  allowList[user] = true */\n      dup1\n      sload\n      not(0xff)\n      and\n      swap1\n      swap3\n      or\n      swap1\n      swap2\n      sstore\n        /* \"MojoClaim.sol\":846:866  AllowListAdded(user) */\n      mload\n      0xe56b6623d31a13d7f3de1f433e634987aad40c35669f0f824222c304b5746d\n      swap2\n        /* \"MojoClaim.sol\":809:824  allowList[user] */\n      swap1\n        /* \"MojoClaim.sol\":846:866  AllowListAdded(user) */\n      log2\n        /* \"MojoClaim.sol\":742:873  function addToAllowList(address user) external onlyAdmin {... */\n      pop\n      jump\t// out\n        /* \"MojoClaim.sol\":1260:1555  function claim() external {... */\n    tag_30:\n        /* \"MojoClaim.sol\":1314:1324  msg.sender */\n      caller\n        /* \"MojoClaim.sol\":1304:1325  allowList[msg.sender] */\n      0x00\n      swap1\n      dup2\n      mstore\n        /* \"MojoClaim.sol\":1304:1313  allowList */\n      0x01\n        /* \"MojoClaim.sol\":1304:1325  allowList[msg.sender] */\n      0x20\n      mstore\n      0x40\n      swap1\n      keccak256\n      sload\n      0xff\n      and\n        /* \"MojoClaim.sol\":1296:1347  require(allowList[msg.sender], \"Not on allow list\") */\n      tag_59\n      jumpi\n      mload(0x40)\n      shl(0xe5, 0x461bcd)\n      dup2\n      mstore\n        /* \"#utility.yul\":2340:2342   */\n      0x20\n        /* \"MojoClaim.sol\":1296:1347  require(allowList[msg.sender], \"Not on allow list\") */\n      0x04\n      dup3\n      add\n        /* \"#utility.yul\":2322:2343   */\n      mstore\n        /* \"#utility.yul\":2379:2381   */\n      0x11\n        /* \"#utility.yul\":2359:2377   */\n      0x24\n      dup3\n      add\n        /* \"#utility.yul\":2352:2382   */\n      mstore\n        /* \"#utility.yul\":2418:2437   */\n      0x4e6f74206f6e20616c6c6f77206c697374000000000000000000000000000000\n        /* \"#utility.yul\":2398:2416   */\n      0x44\n      dup3\n      add\n        /* \"#utility.yul\":2391:2438   */\n      mstore\n        /* \"#utility.yul\":2455:2473   */\n      0x64\n      add\n        /* \"MojoClaim.sol\":1296:1347  require(allowList[msg.sender], \"Not on allow list\") */\n      tag_55\n        /* \"#utility.yul\":2138:2479   */\n      jump\n        /* \"MojoClaim.sol\":1296:1347  require(allowList[msg.sender], \"Not on allow list\") */\n    tag_59:\n        /* \"MojoClaim.sol\":1374:1384  msg.sender */\n      caller\n        /* \"MojoClaim.sol\":1366:1385  claimed[msg.sender] */\n      0x00\n      swap1\n      dup2\n      mstore\n        /* \"MojoClaim.sol\":1366:1373  claimed */\n      0x02\n        /* \"MojoClaim.sol\":1366:1385  claimed[msg.sender] */\n      0x20\n      mstore\n      0x40\n      swap1\n      keccak256\n      sload\n      0xff\n      and\n        /* \"MojoClaim.sol\":1365:1385  !claimed[msg.sender] */\n      iszero\n        /* \"MojoClaim.sol\":1357:1405  require(!claimed[msg.sender], \"Already claimed\") */\n      tag_62\n      jumpi\n      mload(0x40)\n      shl(0xe5, 0x461bcd)\n      dup2\n      mstore\n        /* \"#utility.yul\":2686:2688   */\n      0x20\n        /* \"MojoClaim.sol\":1357:1405  require(!claimed[msg.sender], \"Already claimed\") */\n      0x04\n      dup3\n      add\n        /* \"#utility.yul\":2668:2689   */\n      mstore\n        /* \"#utility.yul\":2725:2727   */\n      0x0f\n        /* \"#utility.yul\":2705:2723   */\n      0x24\n      dup3\n      add\n        /* \"#utility.yul\":2698:2728   */\n      mstore\n        /* \"#utility.yul\":2764:2781   */\n      0x416c726561647920636c61696d65640000000000000000000000000000000000\n        /* \"#utility.yul\":2744:2762   */\n      0x44\n      dup3\n      add\n        /* \"#utility.yul\":2737:2782   */\n      mstore\n        /* \"#utility.yul\":2799:2817   */\n      0x64\n      add\n        /* \"MojoClaim.sol\":1357:1405  require(!claimed[msg.sender], \"Already claimed\") */\n      tag_55\n        /* \"#utility.yul\":2484:2823   */\n      jump\n        /* \"MojoClaim.sol\":1357:1405  require(!claimed[msg.sender], \"Already claimed\") */\n    tag_62:\n        /* \"MojoClaim.sol\":1424:1434  msg.sender */\n      caller\n        /* \"MojoClaim.sol\":1416:1435  claimed[msg.sender] */\n      0x00\n      dup2\n      dup2\n      mstore\n        /* \"MojoClaim.sol\":1416:1423  claimed */\n      0x02\n        /* \"MojoClaim.sol\":1416:1435  claimed[msg.sender] */\n      0x20\n      mstore\n      0x40\n      swap1\n      dup2\n      swap1\n      keccak256\n        /* \"MojoClaim.sol\":1416:1442  claimed[msg.sender] = true */\n      dup1\n      sload\n      not(0xff)\n      and\n        /* \"MojoClaim.sol\":1438:1442  true */\n      0x01\n        /* \"MojoClaim.sol\":1416:1442  claimed[msg.sender] = true */\n      or\n      swap1\n      sstore\n        /* \"MojoClaim.sol\":1452:1494  mojoToken.mintTo(msg.sender, CLAIM_AMOUNT) */\n      mload\n      shl(0xe3, 0x08934a5f)\n      dup2\n      mstore\n      0x04\n      dup2\n      add\n        /* \"#utility.yul\":3002:3076   */\n      swap2\n      swap1\n      swap2\n      mstore\n        /* \"MojoClaim.sol\":300:313  100000 * 1e18 */\n      0x152d02c7e14af6800000\n        /* \"#utility.yul\":3092:3110   */\n      0x24\n      dup3\n      add\n        /* \"#utility.yul\":3085:3119   */\n      mstore\n        /* \"MojoClaim.sol\":1452:1461  mojoToken */\n      immutable(\"0xe4b1702d9298fee62dfeccc57d322a463ad55ca201256d01f62b45b2e1c21c10\")\n      sub(shl(0xa0, 0x01), 0x01)\n        /* \"MojoClaim.sol\":1452:1468  mojoToken.mintTo */\n      and\n      swap1\n      0x449a52f8\n      swap1\n        /* \"#utility.yul\":2975:2993   */\n      0x44\n      add\n        /* \"MojoClaim.sol\":1452:1494  mojoToken.mintTo(msg.sender, CLAIM_AMOUNT) */\n      0x00\n      mload(0x40)\n      dup1\n      dup4\n      sub\n      dup2\n      0x00\n      dup8\n      dup1\n      extcodesize\n      iszero\n      dup1\n      iszero\n      tag_67\n      jumpi\n      0x00\n      dup1\n      revert\n    tag_67:\n      pop\n      gas\n      call\n      iszero\n      dup1\n      iszero\n      tag_69\n      jumpi\n      returndatasize\n      0x00\n      dup1\n      returndatacopy\n      revert(0x00, returndatasize)\n    tag_69:\n      pop\n      pop\n        /* \"MojoClaim.sol\":1509:1548  TokensClaimed(msg.sender, CLAIM_AMOUNT) */\n      mload(0x40)\n        /* \"MojoClaim.sol\":300:313  100000 * 1e18 */\n      0x152d02c7e14af6800000\n        /* \"#utility.yul\":160:185   */\n      dup2\n      mstore\n        /* \"MojoClaim.sol\":1523:1533  msg.sender */\n      caller\n      swap3\n      pop\n        /* \"MojoClaim.sol\":1509:1548  TokensClaimed(msg.sender, CLAIM_AMOUNT) */\n      0x896e034966eaaf1adc54acc0f257056febbd300c9e47182cf761982cf1f5e430\n      swap2\n      pop\n        /* \"#utility.yul\":148:150   */\n      0x20\n        /* \"#utility.yul\":133:151   */\n      add\n        /* \"MojoClaim.sol\":1509:1548  TokensClaimed(msg.sender, CLAIM_AMOUNT) */\n      mload(0x40)\n      dup1\n      swap2\n      sub\n      swap1\n      log2\n        /* \"MojoClaim.sol\":1260:1555  function claim() external {... */\n      jump\t// out\n        /* \"MojoClaim.sol\":879:1109  function addMultipleToAllowList(address[] calldata users) external onlyAdmin {... */\n    tag_34:\n        /* \"MojoClaim.sol\":644:649  admin */\n      and(sub(shl(0xa0, 0x01), 0x01), sload(0x00))\n        /* \"MojoClaim.sol\":630:640  msg.sender */\n      caller\n        /* \"MojoClaim.sol\":630:649  msg.sender == admin */\n      eq\n        /* \"MojoClaim.sol\":622:663  require(msg.sender == admin, \"Not admin\") */\n      tag_72\n      jumpi\n      mload(0x40)\n      shl(0xe5, 0x461bcd)\n      dup2\n      mstore\n        /* \"#utility.yul\":2003:2005   */\n      0x20\n        /* \"MojoClaim.sol\":622:663  require(msg.sender == admin, \"Not admin\") */\n      0x04\n      dup3\n      add\n        /* \"#utility.yul\":1985:2006   */\n      mstore\n        /* \"#utility.yul\":2042:2043   */\n      0x09\n        /* \"#utility.yul\":2022:2040   */\n      0x24\n      dup3\n      add\n        /* \"#utility.yul\":2015:2044   */\n      mstore\n      shl(0xb9, 0x2737ba1030b236b4b7)\n        /* \"#utility.yul\":2060:2078   */\n      0x44\n      dup3\n      add\n        /* \"#utility.yul\":2053:2092   */\n      mstore\n        /* \"#utility.yul\":2109:2127   */\n      0x64\n      add\n        /* \"MojoClaim.sol\":622:663  require(msg.sender == admin, \"Not admin\") */\n      tag_55\n        /* \"#utility.yul\":1801:2133   */\n      jump\n        /* \"MojoClaim.sol\":622:663  require(msg.sender == admin, \"Not admin\") */\n    tag_72:\n        /* \"MojoClaim.sol\":971:980  uint256 i */\n      0x00\n        /* \"MojoClaim.sol\":966:1103  for (uint256 i = 0; i < users.length; i++) {... */\n    tag_75:\n        /* \"MojoClaim.sol\":986:1002  i < users.length */\n      dup2\n      dup2\n      lt\n        /* \"MojoClaim.sol\":966:1103  for (uint256 i = 0; i < users.length; i++) {... */\n      iszero\n      tag_76\n      jumpi\n        /* \"MojoClaim.sol\":1045:1049  true */\n      0x01\n        /* \"MojoClaim.sol\":1023:1032  allowList */\n      dup1\n        /* \"MojoClaim.sol\":1023:1042  allowList[users[i]] */\n      0x00\n        /* \"MojoClaim.sol\":1033:1038  users */\n      dup6\n      dup6\n        /* \"MojoClaim.sol\":1039:1040  i */\n      dup6\n        /* \"MojoClaim.sol\":1033:1041  users[i] */\n      dup2\n      dup2\n      lt\n      tag_79\n      jumpi\n      tag_79\n      tag_80\n      jump\t// in\n    tag_79:\n      swap1\n      pop\n      0x20\n      mul\n      add\n      0x20\n      dup2\n      add\n      swap1\n      tag_81\n      swap2\n      swap1\n      tag_22\n      jump\t// in\n    tag_81:\n      sub(shl(0xa0, 0x01), 0x01)\n        /* \"MojoClaim.sol\":1023:1042  allowList[users[i]] */\n      and\n      dup2\n      mstore\n      0x20\n      dup2\n      add\n      swap2\n      swap1\n      swap2\n      mstore\n      0x40\n      add\n      0x00\n      keccak256\n        /* \"MojoClaim.sol\":1023:1049  allowList[users[i]] = true */\n      dup1\n      sload\n      not(0xff)\n      and\n      swap2\n      iszero\n      iszero\n      swap2\n      swap1\n      swap2\n      or\n      swap1\n      sstore\n        /* \"MojoClaim.sol\":1083:1088  users */\n      dup3\n      dup3\n        /* \"MojoClaim.sol\":1089:1090  i */\n      dup3\n        /* \"MojoClaim.sol\":1083:1091  users[i] */\n      dup2\n      dup2\n      lt\n      tag_83\n      jumpi\n      tag_83\n      tag_80\n      jump\t// in\n    tag_83:\n      swap1\n      pop\n      0x20\n      mul\n      add\n      0x20\n      dup2\n      add\n      swap1\n      tag_84\n      swap2\n      swap1\n      tag_22\n      jump\t// in\n    tag_84:\n      sub(shl(0xa0, 0x01), 0x01)\n        /* \"MojoClaim.sol\":1068:1092  AllowListAdded(users[i]) */\n      and\n      0xe56b6623d31a13d7f3de1f433e634987aad40c35669f0f824222c304b5746d\n      mload(0x40)\n      mload(0x40)\n      dup1\n      swap2\n      sub\n      swap1\n      log2\n        /* \"MojoClaim.sol\":1004:1007  i++ */\n      0x01\n      add\n        /* \"MojoClaim.sol\":966:1103  for (uint256 i = 0; i < users.length; i++) {... */\n      jump(tag_75)\n    tag_76:\n      pop\n        /* \"MojoClaim.sol\":879:1109  function addMultipleToAllowList(address[] calldata users) external onlyAdmin {... */\n      pop\n      pop\n      jump\t// out\n        /* \"MojoClaim.sol\":1561:1652  function changeAdmin(address newAdmin) external onlyAdmin {... */\n    tag_37:\n        /* \"MojoClaim.sol\":644:649  admin */\n      and(sub(shl(0xa0, 0x01), 0x01), sload(0x00))\n        /* \"MojoClaim.sol\":630:640  msg.sender */\n      caller\n        /* \"MojoClaim.sol\":630:649  msg.sender == admin */\n      eq\n        /* \"MojoClaim.sol\":622:663  require(msg.sender == admin, \"Not admin\") */\n      tag_86\n      jumpi\n      mload(0x40)\n      shl(0xe5, 0x461bcd)\n      dup2\n      mstore\n        /* \"#utility.yul\":2003:2005   */\n      0x20\n        /* \"MojoClaim.sol\":622:663  require(msg.sender == admin, \"Not admin\") */\n      0x04\n      dup3\n      add\n        /* \"#utility.yul\":1985:2006   */\n      mstore\n        /* \"#utility.yul\":2042:2043   */\n      0x09\n        /* \"#utility.yul\":2022:2040   */\n      0x24\n      dup3\n      add\n        /* \"#utility.yul\":2015:2044   */\n      mstore\n      shl(0xb9, 0x2737ba1030b236b4b7)\n        /* \"#utility.yul\":2060:2078   */\n      0x44\n      dup3\n      add\n        /* \"#utility.yul\":2053:2092   */\n      mstore\n        /* \"#utility.yul\":2109:2127   */\n      0x64\n      add\n        /* \"MojoClaim.sol\":622:663  require(msg.sender == admin, \"Not admin\") */\n      tag_55\n        /* \"#utility.yul\":1801:2133   */\n      jump\n        /* \"MojoClaim.sol\":622:663  require(msg.sender == admin, \"Not admin\") */\n    tag_86:\n        /* \"MojoClaim.sol\":1629:1634  admin */\n      0x00\n        /* \"MojoClaim.sol\":1629:1645  admin = newAdmin */\n      dup1\n      sload\n      0xffffffffffffffffffffffff0000000000000000000000000000000000000000\n      and\n      sub(shl(0xa0, 0x01), 0x01)\n      swap3\n      swap1\n      swap3\n      and\n      swap2\n      swap1\n      swap2\n      or\n      swap1\n      sstore\n        /* \"MojoClaim.sol\":1561:1652  function changeAdmin(address newAdmin) external onlyAdmin {... */\n      jump\t// out\n        /* \"MojoClaim.sol\":1115:1254  function removeFromAllowList(address user) external onlyAdmin {... */\n    tag_48:\n        /* \"MojoClaim.sol\":644:649  admin */\n      and(sub(shl(0xa0, 0x01), 0x01), sload(0x00))\n        /* \"MojoClaim.sol\":630:640  msg.sender */\n      caller\n        /* \"MojoClaim.sol\":630:649  msg.sender == admin */\n      eq\n        /* \"MojoClaim.sol\":622:663  require(msg.sender == admin, \"Not admin\") */\n      tag_90\n      jumpi\n      mload(0x40)\n      shl(0xe5, 0x461bcd)\n      dup2\n      mstore\n        /* \"#utility.yul\":2003:2005   */\n      0x20\n        /* \"MojoClaim.sol\":622:663  require(msg.sender == admin, \"Not admin\") */\n      0x04\n      dup3\n      add\n        /* \"#utility.yul\":1985:2006   */\n      mstore\n        /* \"#utility.yul\":2042:2043   */\n      0x09\n        /* \"#utility.yul\":2022:2040   */\n      0x24\n      dup3\n      add\n        /* \"#utility.yul\":2015:2044   */\n      mstore\n      shl(0xb9, 0x2737ba1030b236b4b7)\n        /* \"#utility.yul\":2060:2078   */\n      0x44\n      dup3\n      add\n        /* \"#utility.yul\":2053:2092   */\n      mstore\n        /* \"#utility.yul\":2109:2127   */\n      0x64\n      add\n        /* \"MojoClaim.sol\":622:663  require(msg.sender == admin, \"Not admin\") */\n      tag_55\n        /* \"#utility.yul\":1801:2133   */\n      jump\n        /* \"MojoClaim.sol\":622:663  require(msg.sender == admin, \"Not admin\") */\n    tag_90:\n      sub(shl(0xa0, 0x01), 0x01)\n        /* \"MojoClaim.sol\":1187:1202  allowList[user] */\n      dup2\n      and\n        /* \"MojoClaim.sol\":1205:1210  false */\n      0x00\n        /* \"MojoClaim.sol\":1187:1202  allowList[user] */\n      dup2\n      dup2\n      mstore\n        /* \"MojoClaim.sol\":1187:1196  allowList */\n      0x01\n        /* \"MojoClaim.sol\":1187:1202  allowList[user] */\n      0x20\n      mstore\n      0x40\n      dup1\n      dup3\n      keccak256\n        /* \"MojoClaim.sol\":1187:1210  allowList[user] = false */\n      dup1\n      sload\n      not(0xff)\n      and\n      swap1\n      sstore\n        /* \"MojoClaim.sol\":1225:1247  AllowListRemoved(user) */\n      mload\n      0xe7fc45e1e6a61a6d67e182d4847f8c2dcde282d7008410c1bc3a7e8fa299eb90\n      swap2\n        /* \"MojoClaim.sol\":1205:1210  false */\n      swap1\n        /* \"MojoClaim.sol\":1225:1247  AllowListRemoved(user) */\n      log2\n        /* \"MojoClaim.sol\":1115:1254  function removeFromAllowList(address user) external onlyAdmin {... */\n      pop\n      jump\t// out\n        /* \"#utility.yul\":196:505   */\n    tag_22:\n        /* \"#utility.yul\":255:261   */\n      0x00\n        /* \"#utility.yul\":308:310   */\n      0x20\n        /* \"#utility.yul\":296:305   */\n      dup3\n        /* \"#utility.yul\":287:294   */\n      dup5\n        /* \"#utility.yul\":283:306   */\n      sub\n        /* \"#utility.yul\":279:311   */\n      slt\n        /* \"#utility.yul\":276:328   */\n      iszero\n      tag_96\n      jumpi\n        /* \"#utility.yul\":324:325   */\n      0x00\n        /* \"#utility.yul\":321:322   */\n      dup1\n        /* \"#utility.yul\":314:326   */\n      revert\n        /* \"#utility.yul\":276:328   */\n    tag_96:\n        /* \"#utility.yul\":363:372   */\n      dup2\n        /* \"#utility.yul\":350:373   */\n      calldataload\n      sub(shl(0xa0, 0x01), 0x01)\n        /* \"#utility.yul\":406:411   */\n      dup2\n        /* \"#utility.yul\":402:456   */\n      and\n        /* \"#utility.yul\":395:400   */\n      dup2\n        /* \"#utility.yul\":392:457   */\n      eq\n        /* \"#utility.yul\":382:475   */\n      tag_97\n      jumpi\n        /* \"#utility.yul\":471:472   */\n      0x00\n        /* \"#utility.yul\":468:469   */\n      dup1\n        /* \"#utility.yul\":461:473   */\n      revert\n        /* \"#utility.yul\":382:475   */\n    tag_97:\n        /* \"#utility.yul\":494:499   */\n      swap4\n        /* \"#utility.yul\":196:505   */\n      swap3\n      pop\n      pop\n      pop\n      jump\t// out\n        /* \"#utility.yul\":702:1317   */\n    tag_33:\n        /* \"#utility.yul\":788:794   */\n      0x00\n        /* \"#utility.yul\":796:802   */\n      dup1\n        /* \"#utility.yul\":849:851   */\n      0x20\n        /* \"#utility.yul\":837:846   */\n      dup4\n        /* \"#utility.yul\":828:835   */\n      dup6\n        /* \"#utility.yul\":824:847   */\n      sub\n        /* \"#utility.yul\":820:852   */\n      slt\n        /* \"#utility.yul\":817:869   */\n      iszero\n      tag_100\n      jumpi\n        /* \"#utility.yul\":865:866   */\n      0x00\n        /* \"#utility.yul\":862:863   */\n      dup1\n        /* \"#utility.yul\":855:867   */\n      revert\n        /* \"#utility.yul\":817:869   */\n    tag_100:\n        /* \"#utility.yul\":905:914   */\n      dup3\n        /* \"#utility.yul\":892:915   */\n      calldataload\n        /* \"#utility.yul\":934:952   */\n      0xffffffffffffffff\n        /* \"#utility.yul\":975:977   */\n      dup1\n        /* \"#utility.yul\":967:973   */\n      dup3\n        /* \"#utility.yul\":964:978   */\n      gt\n        /* \"#utility.yul\":961:995   */\n      iszero\n      tag_101\n      jumpi\n        /* \"#utility.yul\":991:992   */\n      0x00\n        /* \"#utility.yul\":988:989   */\n      dup1\n        /* \"#utility.yul\":981:993   */\n      revert\n        /* \"#utility.yul\":961:995   */\n    tag_101:\n        /* \"#utility.yul\":1029:1035   */\n      dup2\n        /* \"#utility.yul\":1018:1027   */\n      dup6\n        /* \"#utility.yul\":1014:1036   */\n      add\n        /* \"#utility.yul\":1004:1036   */\n      swap2\n      pop\n        /* \"#utility.yul\":1074:1081   */\n      dup6\n        /* \"#utility.yul\":1067:1071   */\n      0x1f\n        /* \"#utility.yul\":1063:1065   */\n      dup4\n        /* \"#utility.yul\":1059:1072   */\n      add\n        /* \"#utility.yul\":1055:1082   */\n      slt\n        /* \"#utility.yul\":1045:1100   */\n      tag_102\n      jumpi\n        /* \"#utility.yul\":1096:1097   */\n      0x00\n        /* \"#utility.yul\":1093:1094   */\n      dup1\n        /* \"#utility.yul\":1086:1098   */\n      revert\n        /* \"#utility.yul\":1045:1100   */\n    tag_102:\n        /* \"#utility.yul\":1136:1138   */\n      dup2\n        /* \"#utility.yul\":1123:1139   */\n      calldataload\n        /* \"#utility.yul\":1162:1164   */\n      dup2\n        /* \"#utility.yul\":1154:1160   */\n      dup2\n        /* \"#utility.yul\":1151:1165   */\n      gt\n        /* \"#utility.yul\":1148:1182   */\n      iszero\n      tag_103\n      jumpi\n        /* \"#utility.yul\":1178:1179   */\n      0x00\n        /* \"#utility.yul\":1175:1176   */\n      dup1\n        /* \"#utility.yul\":1168:1180   */\n      revert\n        /* \"#utility.yul\":1148:1182   */\n    tag_103:\n        /* \"#utility.yul\":1231:1238   */\n      dup7\n        /* \"#utility.yul\":1226:1228   */\n      0x20\n        /* \"#utility.yul\":1216:1222   */\n      dup3\n        /* \"#utility.yul\":1213:1214   */\n      0x05\n        /* \"#utility.yul\":1209:1223   */\n      shl\n        /* \"#utility.yul\":1205:1207   */\n      dup6\n        /* \"#utility.yul\":1201:1224   */\n      add\n        /* \"#utility.yul\":1197:1229   */\n      add\n        /* \"#utility.yul\":1194:1239   */\n      gt\n        /* \"#utility.yul\":1191:1256   */\n      iszero\n      tag_104\n      jumpi\n        /* \"#utility.yul\":1252:1253   */\n      0x00\n        /* \"#utility.yul\":1249:1250   */\n      dup1\n        /* \"#utility.yul\":1242:1254   */\n      revert\n        /* \"#utility.yul\":1191:1256   */\n    tag_104:\n        /* \"#utility.yul\":1283:1285   */\n      0x20\n        /* \"#utility.yul\":1275:1286   */\n      swap3\n      swap1\n      swap3\n      add\n      swap7\n        /* \"#utility.yul\":1305:1311   */\n      swap2\n      swap6\n      pop\n        /* \"#utility.yul\":702:1317   */\n      swap1\n      swap4\n      pop\n      pop\n      pop\n      pop\n      jump\t// out\n        /* \"#utility.yul\":3130:3257   */\n    tag_80:\n        /* \"#utility.yul\":3191:3201   */\n      0x4e487b71\n        /* \"#utility.yul\":3186:3189   */\n      0xe0\n        /* \"#utility.yul\":3182:3202   */\n      shl\n        /* \"#utility.yul\":3179:3180   */\n      0x00\n        /* \"#utility.yul\":3172:3203   */\n      mstore\n        /* \"#utility.yul\":3222:3226   */\n      0x32\n        /* \"#utility.yul\":3219:3220   */\n      0x04\n        /* \"#utility.yul\":3212:3227   */\n      mstore\n        /* \"#utility.yul\":3246:3250   */\n      0x24\n        /* \"#utility.yul\":3243:3244   */\n      0x00\n        /* \"#utility.yul\":3236:3251   */\n      revert\n\n    auxdata: 0xa26469706673582212206b372e8d0d24058d216f7f4e90b311ae64581a8df9e3c131bd15bd102d60662764736f6c63430008190033\n}\n",
    "bytecode": {
      "linkReferences": {},
      "object": "60a060405273f9e7d3cd71ee60c7a3a64fa7fcb81e610ce1daa56080523480156026575f80fd5b505f80546001600160a01b0319163317905560805161070a6100575f395f818161017d0152610370015261070a5ff3fe608060405234801561000f575f80fd5b50600436106100b9575f3560e01c80638f28397011610072578063d56fb4a911610058578063d56fb4a914610178578063eba8dabc146101b7578063f851a440146101ca575f80fd5b80638f28397014610143578063c884ef8314610156575f80fd5b806331f59102116100a257806331f59102146101135780634e71d92d146101285780635d69086f14610130575f80fd5b8063270ef385146100bd5780632848aeaf146100e1575b5f80fd5b6100ce69152d02c7e14af680000081565b6040519081526020015b60405180910390f35b6101036100ef366004610624565b60016020525f908152604090205460ff1681565b60405190151581526020016100d8565b610126610121366004610624565b6101dc565b005b610126610273565b61012661013e366004610651565b610410565b610126610151366004610624565b610519565b610103610164366004610624565b60026020525f908152604090205460ff1681565b61019f7f000000000000000000000000000000000000000000000000000000000000000081565b6040516001600160a01b0390911681526020016100d8565b6101266101c5366004610624565b610597565b5f5461019f906001600160a01b031681565b5f546001600160a01b031633146102265760405162461bcd60e51b81526020600482015260096024820152682737ba1030b236b4b760b91b60448201526064015b60405180910390fd5b6001600160a01b0381165f818152600160208190526040808320805460ff1916909217909155517ee56b6623d31a13d7f3de1f433e634987aad40c35669f0f824222c304b5746d9190a250565b335f9081526001602052604090205460ff166102d15760405162461bcd60e51b815260206004820152601160248201527f4e6f74206f6e20616c6c6f77206c697374000000000000000000000000000000604482015260640161021d565b335f9081526002602052604090205460ff16156103305760405162461bcd60e51b815260206004820152600f60248201527f416c726561647920636c61696d65640000000000000000000000000000000000604482015260640161021d565b335f8181526002602052604090819020805460ff19166001179055516308934a5f60e31b8152600481019190915269152d02c7e14af680000060248201527f00000000000000000000000000000000000000000000000000000000000000006001600160a01b03169063449a52f8906044015f604051808303815f87803b1580156103b9575f80fd5b505af11580156103cb573d5f803e3d5ffd5b505060405169152d02c7e14af680000081523392507f896e034966eaaf1adc54acc0f257056febbd300c9e47182cf761982cf1f5e430915060200160405180910390a2565b5f546001600160a01b031633146104555760405162461bcd60e51b81526020600482015260096024820152682737ba1030b236b4b760b91b604482015260640161021d565b5f5b81811015610514576001805f858585818110610475576104756106c0565b905060200201602081019061048a9190610624565b6001600160a01b0316815260208101919091526040015f20805460ff19169115159190911790558282828181106104c3576104c36106c0565b90506020020160208101906104d89190610624565b6001600160a01b03167ee56b6623d31a13d7f3de1f433e634987aad40c35669f0f824222c304b5746d60405160405180910390a2600101610457565b505050565b5f546001600160a01b0316331461055e5760405162461bcd60e51b81526020600482015260096024820152682737ba1030b236b4b760b91b604482015260640161021d565b5f80547fffffffffffffffffffffffff0000000000000000000000000000000000000000166001600160a01b0392909216919091179055565b5f546001600160a01b031633146105dc5760405162461bcd60e51b81526020600482015260096024820152682737ba1030b236b4b760b91b604482015260640161021d565b6001600160a01b0381165f81815260016020526040808220805460ff19169055517fe7fc45e1e6a61a6d67e182d4847f8c2dcde282d7008410c1bc3a7e8fa299eb909190a250565b5f60208284031215610634575f80fd5b81356001600160a01b038116811461064a575f80fd5b9392505050565b5f8060208385031215610662575f80fd5b823567ffffffffffffffff80821115610679575f80fd5b818501915085601f83011261068c575f80fd5b81358181111561069a575f80fd5b8660208260051b85010111156106ae575f80fd5b60209290920196919550909350505050565b634e487b7160e01b5f52603260045260245ffdfea26469706673582212206b372e8d0d24058d216f7f4e90b311ae64581a8df9e3c131bd15bd102d60662764736f6c63430008190033",
      "opcodes": "PUSH1 0xA0 PUSH1 0x40 MSTORE PUSH20 0xF9E7D3CD71EE60C7A3A64FA7FCB81E610CE1DAA5 PUSH1 0x80 MSTORE CALLVALUE DUP1 ISZERO PUSH1 0x26 JUMPI PUSH0 DUP1 REVERT JUMPDEST POP PUSH0 DUP1 SLOAD PUSH1 0x1 PUSH1 0x1 PUSH1 0xA0 SHL SUB NOT AND CALLER OR SWAP1 SSTORE PUSH1 0x80 MLOAD PUSH2 0x70A PUSH2 0x57 PUSH0 CODECOPY PUSH0 DUP2 DUP2 PUSH2 0x17D ADD MSTORE PUSH2 0x370 ADD MSTORE PUSH2 0x70A PUSH0 RETURN INVALID PUSH1 0x80 PUSH1 0x40 MSTORE CALLVALUE DUP1 ISZERO PUSH2 0xF JUMPI PUSH0 DUP1 REVERT JUMPDEST POP PUSH1 0x4 CALLDATASIZE LT PUSH2 0xB9 JUMPI PUSH0 CALLDATALOAD PUSH1 0xE0 SHR DUP1 PUSH4 0x8F283970 GT PUSH2 0x72 JUMPI DUP1 PUSH4 0xD56FB4A9 GT PUSH2 0x58 JUMPI DUP1 PUSH4 0xD56FB4A9 EQ PUSH2 0x178 JUMPI DUP1 PUSH4 0xEBA8DABC EQ PUSH2 0x1B7 JUMPI DUP1 PUSH4 0xF851A440 EQ PUSH2 0x1CA JUMPI PUSH0 DUP1 REVERT JUMPDEST DUP1 PUSH4 0x8F283970 EQ PUSH2 0x143 JUMPI DUP1 PUSH4 0xC884EF83 EQ PUSH2 0x156 JUMPI PUSH0 DUP1 REVERT JUMPDEST DUP1 PUSH4 0x31F59102 GT PUSH2 0xA2 JUMPI DUP1 PUSH4 0x31F59102 EQ PUSH2 0x113 JUMPI DUP1 PUSH4 0x4E71D92D EQ PUSH2 0x128 JUMPI DUP1 PUSH4 0x5D69086F EQ PUSH2 0x130 JUMPI PUSH0 DUP1 REVERT JUMPDEST DUP1 PUSH4 0x270EF385 EQ PUSH2 0xBD JUMPI DUP1 PUSH4 0x2848AEAF EQ PUSH2 0xE1 JUMPI JUMPDEST PUSH0 DUP1 REVERT JUMPDEST PUSH2 0xCE PUSH10 0x152D02C7E14AF6800000 DUP2 JUMP JUMPDEST PUSH1 0x40 MLOAD SWAP1 DUP2 MSTORE PUSH1 0x20 ADD JUMPDEST PUSH1 0x40 MLOAD DUP1 SWAP2 SUB SWAP1 RETURN JUMPDEST PUSH2 0x103 PUSH2 0xEF CALLDATASIZE PUSH1 0x4 PUSH2 0x624 JUMP JUMPDEST PUSH1 0x1 PUSH1 0x20 MSTORE PUSH0 SWAP1 DUP2 MSTORE PUSH1 0x40 SWAP1 KECCAK256 SLOAD PUSH1 0xFF AND DUP2 JUMP JUMPDEST PUSH1 0x40 MLOAD SWAP1 ISZERO ISZERO DUP2 MSTORE PUSH1 0x20 ADD PUSH2 0xD8 JUMP JUMPDEST PUSH2 0x126 PUSH2 0x121 CALLDATASIZE PUSH1 0x4 PUSH2 0x624 JUMP JUMPDEST PUSH2 0x1DC JUMP JUMPDEST STOP JUMPDEST PUSH2 0x126 PUSH2 0x273 JUMP JUMPDEST PUSH2 0x126 PUSH2 0x13E CALLDATASIZE PUSH1 0x4 PUSH2 0x651 JUMP JUMPDEST PUSH2 0x410 JUMP JUMPDEST PUSH2 0x126 PUSH2 0x151 CALLDATASIZE PUSH1 0x4 PUSH2 0x624 JUMP JUMPDEST PUSH2 0x519 JUMP JUMPDEST PUSH2 0x103 PUSH2 0x164 CALLDATASIZE PUSH1 0x4 PUSH2 0x624 JUMP JUMPDEST PUSH1 0x2 PUSH1 0x20 MSTORE PUSH0 SWAP1 DUP2 MSTORE PUSH1 0x40 SWAP1 KECCAK256 SLOAD PUSH1 0xFF AND DUP2 JUMP JUMPDEST PUSH2 0x19F PUSH32 0x0 DUP2 JUMP JUMPDEST PUSH1 0x40 MLOAD PUSH1 0x1 PUSH1 0x1 PUSH1 0xA0 SHL SUB SWAP1 SWAP2 AND DUP2 MSTORE PUSH1 0x20 ADD PUSH2 0xD8 JUMP JUMPDEST PUSH2 0x126 PUSH2 0x1C5 CALLDATASIZE PUSH1 0x4 PUSH2 0x624 JUMP JUMPDEST PUSH2 0x597 JUMP JUMPDEST PUSH0 SLOAD PUSH2 0x19F SWAP1 PUSH1 0x1 PUSH1 0x1 PUSH1 0xA0 SHL SUB AND DUP2 JUMP JUMPDEST PUSH0 SLOAD PUSH1 0x1 PUSH1 0x1 PUSH1 0xA0 SHL SUB AND CALLER EQ PUSH2 0x226 JUMPI PUSH1 0x40 MLOAD PUSH3 0x461BCD PUSH1 0xE5 SHL DUP2 MSTORE PUSH1 0x20 PUSH1 0x4 DUP3 ADD MSTORE PUSH1 0x9 PUSH1 0x24 DUP3 ADD MSTORE PUSH9 0x2737BA1030B236B4B7 PUSH1 0xB9 SHL PUSH1 0x44 DUP3 ADD MSTORE PUSH1 0x64 ADD JUMPDEST PUSH1 0x40 MLOAD DUP1 SWAP2 SUB SWAP1 REVERT JUMPDEST PUSH1 0x1 PUSH1 0x1 PUSH1 0xA0 SHL SUB DUP2 AND PUSH0 DUP2 DUP2 MSTORE PUSH1 0x1 PUSH1 0x20 DUP2 SWAP1 MSTORE PUSH1 0x40 DUP1 DUP4 KECCAK256 DUP1 SLOAD PUSH1 0xFF NOT AND SWAP1 SWAP3 OR SWAP1 SWAP2 SSTORE MLOAD PUSH31 0xE56B6623D31A13D7F3DE1F433E634987AAD40C35669F0F824222C304B5746D SWAP2 SWAP1 LOG2 POP JUMP JUMPDEST CALLER PUSH0 SWAP1 DUP2 MSTORE PUSH1 0x1 PUSH1 0x20 MSTORE PUSH1 0x40 SWAP1 KECCAK256 SLOAD PUSH1 0xFF AND PUSH2 0x2D1 JUMPI PUSH1 0x40 MLOAD PUSH3 0x461BCD PUSH1 0xE5 SHL DUP2 MSTORE PUSH1 0x20 PUSH1 0x4 DUP3 ADD MSTORE PUSH1 0x11 PUSH1 0x24 DUP3 ADD MSTORE PUSH32 0x4E6F74206F6E20616C6C6F77206C697374000000000000000000000000000000 PUSH1 0x44 DUP3 ADD MSTORE PUSH1 0x64 ADD PUSH2 0x21D JUMP JUMPDEST CALLER PUSH0 SWAP1 DUP2 MSTORE PUSH1 0x2 PUSH1 0x20 MSTORE PUSH1 0x40 SWAP1 KECCAK256 SLOAD PUSH1 0xFF AND ISZERO PUSH2 0x330 JUMPI PUSH1 0x40 MLOAD PUSH3 0x461BCD PUSH1 0xE5 SHL DUP2 MSTORE PUSH1 0x20 PUSH1 0x4 DUP3 ADD MSTORE PUSH1 0xF PUSH1 0x24 DUP3 ADD MSTORE PUSH32 0x416C726561647920636C61696D65640000000000000000000000000000000000 PUSH1 0x44 DUP3 ADD MSTORE PUSH1 0x64 ADD PUSH2 0x21D JUMP JUMPDEST CALLER PUSH0 DUP2 DUP2 MSTORE PUSH1 0x2 PUSH1 0x20 MSTORE PUSH1 0x40 SWAP1 DUP2 SWAP1 KECCAK256 DUP1 SLOAD PUSH1 0xFF NOT AND PUSH1 0x1 OR SWAP1 SSTORE MLOAD PUSH4 0x8934A5F PUSH1 0xE3 SHL DUP2 MSTORE PUSH1 0x4 DUP2 ADD SWAP2 SWAP1 SWAP2 MSTORE PUSH10 0x152D02C7E14AF6800000 PUSH1 0x24 DUP3 ADD MSTORE PUSH32 0x0 PUSH1 0x1 PUSH1 0x1 PUSH1 0xA0 SHL SUB AND SWAP1 PUSH4 0x449A52F8 SWAP1 PUSH1 0x44 ADD PUSH0 PUSH1 0x40 MLOAD DUP1 DUP4 SUB DUP2 PUSH0 DUP8 DUP1 EXTCODESIZE ISZERO DUP1 ISZERO PUSH2 0x3B9 JUMPI PUSH0 DUP1 REVERT JUMPDEST POP GAS CALL ISZERO DUP1 ISZERO PUSH2 0x3CB JUMPI RETURNDATASIZE PUSH0 DUP1 RETURNDATACOPY RETURNDATASIZE PUSH0 REVERT JUMPDEST POP POP PUSH1 0x40 MLOAD PUSH10 0x152D02C7E14AF6800000 DUP2 MSTORE CALLER SWAP3 POP PUSH32 0x896E034966EAAF1ADC54ACC0F257056FEBBD300C9E47182CF761982CF1F5E430 SWAP2 POP PUSH1 0x20 ADD PUSH1 0x40 MLOAD DUP1 SWAP2 SUB SWAP1 LOG2 JUMP JUMPDEST PUSH0 SLOAD PUSH1 0x1 PUSH1 0x1 PUSH1 0xA0 SHL SUB AND CALLER EQ PUSH2 0x455 JUMPI PUSH1 0x40 MLOAD PUSH3 0x461BCD PUSH1 0xE5 SHL DUP2 MSTORE PUSH1 0x20 PUSH1 0x4 DUP3 ADD MSTORE PUSH1 0x9 PUSH1 0x24 DUP3 ADD MSTORE PUSH9 0x2737BA1030B236B4B7 PUSH1 0xB9 SHL PUSH1 0x44 DUP3 ADD MSTORE PUSH1 0x64 ADD PUSH2 0x21D JUMP JUMPDEST PUSH0 JUMPDEST DUP2 DUP2 LT ISZERO PUSH2 0x514 JUMPI PUSH1 0x1 DUP1 PUSH0 DUP6 DUP6 DUP6 DUP2 DUP2 LT PUSH2 0x475 JUMPI PUSH2 0x475 PUSH2 0x6C0 JUMP JUMPDEST SWAP1 POP PUSH1 0x20 MUL ADD PUSH1 0x20 DUP2 ADD SWAP1 PUSH2 0x48A SWAP2 SWAP1 PUSH2 0x624 JUMP JUMPDEST PUSH1 0x1 PUSH1 0x1 PUSH1 0xA0 SHL SUB AND DUP2 MSTORE PUSH1 0x20 DUP2 ADD SWAP2 SWAP1 SWAP2 MSTORE PUSH1 0x40 ADD PUSH0 KECCAK256 DUP1 SLOAD PUSH1 0xFF NOT AND SWAP2 ISZERO ISZERO SWAP2 SWAP1 SWAP2 OR SWAP1 SSTORE DUP3 DUP3 DUP3 DUP2 DUP2 LT PUSH2 0x4C3 JUMPI PUSH2 0x4C3 PUSH2 0x6C0 JUMP JUMPDEST SWAP1 POP PUSH1 0x20 MUL ADD PUSH1 0x20 DUP2 ADD SWAP1 PUSH2 0x4D8 SWAP2 SWAP1 PUSH2 0x624 JUMP JUMPDEST PUSH1 0x1 PUSH1 0x1 PUSH1 0xA0 SHL SUB AND PUSH31 0xE56B6623D31A13D7F3DE1F433E634987AAD40C35669F0F824222C304B5746D PUSH1 0x40 MLOAD PUSH1 0x40 MLOAD DUP1 SWAP2 SUB SWAP1 LOG2 PUSH1 0x1 ADD PUSH2 0x457 JUMP JUMPDEST POP POP POP JUMP JUMPDEST PUSH0 SLOAD PUSH1 0x1 PUSH1 0x1 PUSH1 0xA0 SHL SUB AND CALLER EQ PUSH2 0x55E JUMPI PUSH1 0x40 MLOAD PUSH3 0x461BCD PUSH1 0xE5 SHL DUP2 MSTORE PUSH1 0x20 PUSH1 0x4 DUP3 ADD MSTORE PUSH1 0x9 PUSH1 0x24 DUP3 ADD MSTORE PUSH9 0x2737BA1030B236B4B7 PUSH1 0xB9 SHL PUSH1 0x44 DUP3 ADD MSTORE PUSH1 0x64 ADD PUSH2 0x21D JUMP JUMPDEST PUSH0 DUP1 SLOAD PUSH32 0xFFFFFFFFFFFFFFFFFFFFFFFF0000000000000000000000000000000000000000 AND PUSH1 0x1 PUSH1 0x1 PUSH1 0xA0 SHL SUB SWAP3 SWAP1 SWAP3 AND SWAP2 SWAP1 SWAP2 OR SWAP1 SSTORE JUMP JUMPDEST PUSH0 SLOAD PUSH1 0x1 PUSH1 0x1 PUSH1 0xA0 SHL SUB AND CALLER EQ PUSH2 0x5DC JUMPI PUSH1 0x40 MLOAD PUSH3 0x461BCD PUSH1 0xE5 SHL DUP2 MSTORE PUSH1 0x20 PUSH1 0x4 DUP3 ADD MSTORE PUSH1 0x9 PUSH1 0x24 DUP3 ADD MSTORE PUSH9 0x2737BA1030B236B4B7 PUSH1 0xB9 SHL PUSH1 0x44 DUP3 ADD MSTORE PUSH1 0x64 ADD PUSH2 0x21D JUMP JUMPDEST PUSH1 0x1 PUSH1 0x1 PUSH1 0xA0 SHL SUB DUP2 AND PUSH0 DUP2 DUP2 MSTORE PUSH1 0x1 PUSH1 0x20 MSTORE PUSH1 0x40 DUP1 DUP3 KECCAK256 DUP1 SLOAD PUSH1 0xFF NOT AND SWAP1 SSTORE MLOAD PUSH32 0xE7FC45E1E6A61A6D67E182D4847F8C2DCDE282D7008410C1BC3A7E8FA299EB90 SWAP2 SWAP1 LOG2 POP JUMP JUMPDEST PUSH0 PUSH1 0x20 DUP3 DUP5 SUB SLT ISZERO PUSH2 0x634 JUMPI PUSH0 DUP1 REVERT JUMPDEST DUP2 CALLDATALOAD PUSH1 0x1 PUSH1 0x1 PUSH1 0xA0 SHL SUB DUP2 AND DUP2 EQ PUSH2 0x64A JUMPI PUSH0 DUP1 REVERT JUMPDEST SWAP4 SWAP3 POP POP POP JUMP JUMPDEST PUSH0 DUP1 PUSH1 0x20 DUP4 DUP6 SUB SLT ISZERO PUSH2 0x662 JUMPI PUSH0 DUP1 REVERT JUMPDEST DUP3 CALLDATALOAD PUSH8 0xFFFFFFFFFFFFFFFF DUP1 DUP3 GT ISZERO PUSH2 0x679 JUMPI PUSH0 DUP1 REVERT JUMPDEST DUP2 DUP6 ADD SWAP2 POP DUP6 PUSH1 0x1F DUP4 ADD SLT PUSH2 0x68C JUMPI PUSH0 DUP1 REVERT JUMPDEST DUP2 CALLDATALOAD DUP2 DUP2 GT ISZERO PUSH2 0x69A JUMPI PUSH0 DUP1 REVERT JUMPDEST DUP7 PUSH1 0x20 DUP3 PUSH1 0x5 SHL DUP6 ADD ADD GT ISZERO PUSH2 0x6AE JUMPI PUSH0 DUP1 REVERT JUMPDEST PUSH1 0x20 SWAP3 SWAP1 SWAP3 ADD SWAP7 SWAP2 SWAP6 POP SWAP1 SWAP4 POP POP POP POP JUMP JUMPDEST PUSH4 0x4E487B71 PUSH1 0xE0 SHL PUSH0 MSTORE PUSH1 0x32 PUSH1 0x4 MSTORE PUSH1 0x24 PUSH0 REVERT INVALID LOG2 PUSH5 0x6970667358 0x22 SLT KECCAK256 PUSH12 0x372E8D0D24058D216F7F4E90 0xB3 GT 0xAE PUSH5 0x581A8DF9E3 0xC1 BALANCE 0xBD ISZERO 0xBD LT 0x2D PUSH1 0x66 0x27 PUSH5 0x736F6C6343 STOP ADDMOD NOT STOP CALLER "
    },
    "gasEstimates": {
      "creation": {
        "codeDepositCost": "360400",
        "executionCost": "infinite",
        "totalCost": "infinite"
      },
      "external": {
        "CLAIM_AMOUNT()": "207",
        "addMultipleToAllowList(address[])": "infinite",
        "addToAllowList(address)": "27891",
        "admin()": "2401",
        "allowList(address)": "2539",
        "changeAdmin(address)": "26680",
        "claim()": "infinite",
        "claimed(address)": "2538",
        "mojoToken()": "infinite",
        "removeFromAllowList(address)": "27894"
      }
    },
    "methodIdentifiers": {
      "CLAIM_AMOUNT()": "270ef385",
      "addMultipleToAllowList(address[])": "5d69086f",
      "addToAllowList(address)": "31f59102",
      "admin()": "f851a440",
      "allowList(address)": "2848aeaf",
      "changeAdmin(address)": "8f283970",
      "claim()": "4e71d92d",
      "claimed(address)": "c884ef83",
      "mojoToken()": "d56fb4a9",
      "removeFromAllowList(address)": "eba8dabc"
    }
  },
  "storageLayout": {
    "storage": [
      {
        "astId": 10,
        "contract": "MojoClaim.sol:MojoClaim",
        "label": "admin",
        "offset": 0,
        "slot": "0",
        "type": "t_address"
      },
      {
        "astId": 19,
        "contract": "MojoClaim.sol:MojoClaim",
        "label": "allowList",
        "offset": 0,
        "slot": "1",
        "type": "t_mapping(t_address,t_bool)"
      },
      {
        "astId": 23,
        "contract": "MojoClaim.sol:MojoClaim",
        "label": "claimed",
        "offset": 0,
        "slot": "2",
        "type": "t_mapping(t_address,t_bool)"
      }
    ],
    "types": {
      "t_address": {
        "encoding": "inplace",
        "label": "address",
        "numberOfBytes": "20"
      },
      "t_bool": {
        "encoding": "inplace",
        "label": "bool",
        "numberOfBytes": "1"
      },
      "t_mapping(t_address,t_bool)": {
        "encoding": "mapping",
        "key": "t_address",
        "label": "mapping(address => bool)",
        "numberOfBytes": "32",
        "value": "t_bool"
      }
    }
  },
  "userdoc": {
    "kind": "user",
    "methods": {},
    "version": 1
  }
}